:10000000FBC0000029C1000027C1000025C100007D
:1000100023C1000021C100001FC100001DC100005C
:100020001BC1000019C1000017C1000015C100006C
:1000300013C1000011C100000FC100000DC100007C
:100040000BC10000A4C6000007C1000005C10000EC
:1000500003C1000001C10000FFC0000068C500002E
:10006000FBC00000D7C50000ACC50000F5C0000013
:10007000F3C00000F1C00000EFC00000EDC00000C0
:1000800059C60000E9C00000E7C00000E5C000005C
:10009000E3C00000E1C00000DFC00000A5C6000012
:1000A000DBC00000D9C0000018C60000D5C00000A9
:1000B000D3C00000D1C00000CFC00000E1C50000E7
:1000C000CBC00000C9C00000C7C00000C5C0000010
:1000D000C3C00000C1C00000BFC00000BDC0000020
:1000E000BBC00000FD010002EF01F301F701370280
:1000F000040208020E02120216021C02200224024E
:1001000037022A022E0232020000220025002800B7
:100110002B002E003100340002010000050108010F
:100120000B0105050505070508080808020202027B
:100130000A0A080804040404010101010101010183
:100140000303030303030303040707070C0C0C0C4E
:100150000C0C0C0C02020202060606060606060637
:100160000B0B0B0B0B0B0B0B0102102020080810C4
:100170002040102040800201020108040201010217
:1001800004081020408080402010080402018004F0
:10019000020180402010080402010804020101024B
:1001A0000408102040800102040810204080000054
:1001B0000A0B02090C0D0E080703040100000000E1
:1001C000000000000000000000000000000000002F
:1001D00000000000000000000000121110000000EC
:1001E000000000000000000000000000000000000F
:1001F000000000002508FE0911241FBECFEFD1E248
:10020000DEBFCDBF00E00CBF12E0A0E0B2E0E6ED43
:10021000F6E100E00BBF02C007900D92A433B107D6
:10022000D9F724E0A4E3B2E001C01D92AC33B207D9
:10023000E1F710E0CBEFD0E000E006C02197010924
:10024000802FFE010E94210ACA3FD10780E00807E3
:10025000A9F73ED70C945A0BD3CE382F20918A039E
:1002600090918903213208F049C080916603811181
:10027000FCCF42E040936603309365033FEF309339
:1002800064031092630320936203A9E6B3E042E49F
:1002900053E0FA013E2F341B321718F43D9131938D
:1002A000F9CF1092410320914103990F922B909323
:1002B000410390914003913061F41092400390917A
:1002C00041039093BB009091BC0093FDF8CF95EC57
:1002D00001C095EE9093BC00909166039230E1F3DB
:1002E000909164039F3F79F080916403803241F0E4
:1002F00080916403803331F084E005C081E003C065
:1003000082E001C083E01092680310928A03109289
:1003100067030895909166039111FCCF91E090934B
:100320006603409365032FEF2093640310926303E9
:10033000260F209362039093410390914103880F0D
:10034000892B8093410380914003813061F41092A6
:100350004003809141038093BB008091BC0083FDEA
:10036000F8CF85EC01C085EE8093BC0080916603D8
:100370008130E1F380916303861710F46091630389
:10038000A2E4B3E020E233E0F9018E2F821B86174E
:1003900018F48D918193F9CF862F0895362F90E030
:1003A000FC01E255FE4F4491FC01E859FE4F2491B7
:1003B000FC01EE5DFE4F9491992309F46BC0442338
:1003C00009F455C050E0FA013197E231F10508F027
:1003D0004EC08827EE58FF4F8F4F0C94210A809112
:1003E00080008F7707C0809180008F7D03C080914F
:1003F0008000877F809380003AC084B58F7702C0E9
:1004000084B58F7D84BD33C08091B0008F7703C0E9
:100410008091B0008F7D8093B00029C080919000C2
:100420008F7707C0809190008F7D03C080919000EE
:10043000877F809390001BC08091A0008F7707C0BA
:100440008091A0008F7D03C08091A000877F809362
:10045000A0000DC0809120018F7707C080912001FE
:100460008F7D03C080912001877F80932001E92F39
:10047000F0E0EE0FFF1FE85FFE4FA591B4918FB73C
:10048000F894EC91311103C020952E2301C02E2B3E
:100490002C938FBF08953FB7F89480911A039091E1
:1004A0001B03A0911C03B0911D0326B5A89B05C09A
:1004B0002F3F19F00196A11DB11D3FBFBA2FA92FE3
:1004C000982F8827820F911DA11DB11DBC01CD0160
:1004D00042E0660F771F881F991F4A95D1F708954C
:1004E000CF92DF92EF92FF920F931F93CF93DF9300
:1004F0006C017A018B01C0E0D0E0CE15DF0589F0F8
:10050000D8016D918D01D601ED91FC910190F081A2
:10051000E02DC6011995892B11F47E0102C02196A8
:10052000ECCFC701DF91CF911F910F91FF90EF901A
:10053000DF90CF900895FC01918D828D981761F026
:10054000828DDF01A80FB11D5D968C91928D9F5F0A
:100550009F73928F90E008958FEF9FEF0895FC01B5
:10056000918D828D981731F0828DE80FF11D858D68
:1005700090E008958FEF9FEF0895FC01918D228DFB
:10058000892F90E0805C9F4F821B91098F73992780
:1005900008958BE893E0F1DF21E0892B09F420E056
:1005A000822F0895FC01848DDF01A80FB11DA35A8D
:1005B000BF4F2C91848D90E001968F739927848F83
:1005C000A689B7892C93A089B1898C9180648C937A
:1005D000938D848D981306C00288F389E02D808165
:1005E0008F7D80830895EF92FF920F931F93CF9397
:1005F000DF93EC0181E0888F9B8D8C8D981305C073
:10060000E889F989808185FD23C0F62E0B8D10E0E5
:100610000F5F1F4F0F731127E02E8C8DE8120BC058
:100620000FB607FCFACFE889F989808185FFF5CFFD
:10063000CE01B8DFF2CF8B8DFE01E80FF11DE35A3A
:10064000FF4FF0820B8FEA89FB898081806207C0AF
:10065000EE89FF896083E889F989808180648083DD
:1006600081E090E0DF91CF911F910F91FF90EF908B
:100670000895CF93DF93EC01888D8823C1F0EA8938
:10068000FB89808185FD05C0A889B9898C9186FD8B
:100690000EC00FB607FCF5CF808185FFF2CFA88989
:1006A000B9898C9185FFEDCFCE017CDFE8CFDF915A
:1006B000CF91089580E090E0892B19F06ADF8111D5
:1006C00025C080E090E0892B41F080E090E0892B0C
:1006D00021F00E94000081111CC080E090E0892B75
:1006E00041F080E090E0892B21F00E940000811110
:1006F00013C080E090E0892BA1F080E090E0892B8E
:1007000081F00E94000081110AC008950E9400003B
:10071000D8CF0E940000E1CF0E940000EACF0C94E5
:10072000000008950895CF93DF93DB01EA01FC01F7
:10073000E55FFC4F208127FF04C011961C921E929A
:100740000DC040815CE0589F9001599F300D1124ED
:10075000240F311D47FD3A9537FD208120812F5F01
:1007600020834CE0489F9001499F300D11248081E7
:10077000A901480F511D87FD5A9557FF1EC0808162
:100780008C30DCF44D915C918081B901680F711D52
:1007900087FD7A95CB01DB01AA0FBB1F8A0F9B1F38
:1007A000DC01A558BD4F11968D919C911297840F35
:1007B000951F99838883808111C08D919C91119799
:1007C000049680349C4918F480E49CE903C08D9120
:1007D0009C910496998388838FEF8083DF91CF91DA
:1007E00008950895E0911F0380911E03E81730F4E7
:1007F000F0E0E05EFC4F808190E008958FEF9FEF86
:10080000089590911F0380911E03981750F4E92FCB
:10081000F0E0E05EFC4F208130E09F5F90931F038B
:1008200002C02FEF3FEFC901089580911E0390E0B1
:1008300020911F03821B9109089585ED8093BC00D0
:100840008091BC0084FDFCCF109266030895409116
:100850005602262F30E0240F311D21323105DCF401
:10086000209166032430C9F4FC0180E090E08617F3
:1008700058F4309156022191DC01AC5CBD4FA30FBE
:10088000B11D2C930196F3CF80915602680F6093AF
:10089000560280E0089581E0089582E00895CF92A5
:1008A000DF92EF92FF920F931F93CF93DF937C0120
:1008B000262F972F8A0180916703882391F0C62FF6
:1008C000D72F6E01C40ED51ECC15DD0569F06991D8
:1008D000D701ED91FC910190F081E02DC7011995B0
:1008E000F3CF642F822FB3DFC801DF91CF911F9127
:1008F0000F91FF90EF90DF90CF900895CF93DF930B
:100900001F92CDB7DEB76983209167032223D1F010
:1009100020918A03203240F021E030E0FC01338353
:10092000228380E090E014C080916803E82FF0E01B
:10093000E759FC4F998190838F5F80936803809380
:100940008A0304C061E0CE01019681DF81E090E07E
:100950000F90DF91CF910895682F88E294E0CECF79
:10096000CF93DF93EB012091360431E0309367039E
:10097000209389031092680310928A03EDDFCE0161
:10098000EBDF81E06ADC81E090E0DF91CF910895B8
:10099000EF92FF920F931F93CF93DF937B01C4E3FA
:1009A000D4E02A8111E01093670320938903109209
:1009B000680310928A03D0DF80E04FDC41E061E001
:1009C0008A81A8DC10921F0380931E0388E294E0C2
:1009D00018DF082F8A811093670380938903109290
:1009E000680310928A03C701B7DF80E036DC41E07C
:1009F00061E08A818FDC10921F0380931E0388E2DE
:100A000094E0FFDE982F8827800F911DDF91CF9112
:100A10001F910F91FF90EF900895009761F0FC01F6
:100A200001900020E9F73197AF01481B590BBC0139
:100A30008BE893E055CD80E090E008958F929F92EF
:100A4000AF92BF92CF92DF92EF92FF920F931F93DC
:100A5000CF93DF93CDB7DEB7A1970FB6F894DEBF83
:100A60000FBECDBF6C01990FEE08FF08F7FE2FC037
:100A7000E0918B03F0918C030190F081E02D6DE209
:100A80008BE893E019958C0122273327A9012C19B3
:100A90003D094E095F0919A2CE0181967C019AE0B9
:100AA000892E912CA12CB12CCA01B901A501940168
:100AB000A6D4605DF70162937F01211531054105E0
:100AC000510591F7CF01A9DF800F911F1BC0A7012E
:100AD000960119A28E010F5D1F4F8AE0C82ED12CFE
:100AE000E12CF12CCA01B901A701960188D4605DFF
:100AF000F80162938F01211531054105510591F7E8
:100B0000CF018BDFA1960FB6F894DEBF0FBECDBF2D
:100B1000DF91CF911F910F91FF90EF90DF90CF90D9
:100B2000BF90AF909F908F900895C0D527C51F921A
:100B30000F920FB60F9211242F933F938F939F9391
:100B4000AF93BF938091160390911703A091180360
:100B5000B09119033091150323E0230F2D3720F4B2
:100B60000196A11DB11D05C026E8230F0296A11D07
:100B7000B11D209315038093160390931703A09340
:100B80001803B093190380911A0390911B03A0914D
:100B90001C03B0911D030196A11DB11D80931A0382
:100BA00090931B03A0931C03B0931D03BF91AF91BF
:100BB0009F918F913F912F910F900FBE0F901F909B
:100BC00018951F920F920FB60F9211240BB60F9229
:100BD0002F933F934F935F936F937F938F939F9345
:100BE000AF93BF93EF93FF938BE893E0DBDCFF9130
:100BF000EF91BF91AF919F918F917F916F915F9195
:100C00004F913F912F910F900BBE0F900FBE0F9001
:100C10001F9018951F920F920FB60F9211240BB6CA
:100C20000F922F938F939F93EF93FF93E0919B03EA
:100C3000F0919C038081E091A103F091A20382FDD9
:100C400012C090818091A4038F5F8F732091A503C0
:100C5000821751F0E091A403F0E0E557FC4F958F27
:100C60008093A40301C08081FF91EF919F918F91A8
:100C70002F910F900BBE0F900FBE0F901F901895E5
:100C80001F920F920FB60F9211240BB60F922F9353
:100C90003F934F935F936F937F938F939F93AF9304
:100CA000BF93EF93FF9348E251E064E271E080E08C
:100CB00090E039DDFF91EF91BF91AF919F918F91BE
:100CC0007F916F915F914F913F912F910F900BBE4C
:100CD0000F900FBE0F901F9018951F920F920FB696
:100CE0000F9211240BB60F922F933F934F935F9364
:100CF0006F937F938F939F93AF93BF93EF93FF93E4
:100D000048EA50E064EA70E083E090E00CDDFF9197
:100D1000EF91BF91AF919F918F917F916F915F9173
:100D20004F913F912F910F900BBE0F900FBE0F90E0
:100D30001F9018951F920F920FB60F9211240BB6A9
:100D40000F922F933F934F935F936F937F938F9364
:100D50009F93AF93BF93EF93FF9348E950E064E90B
:100D600070E082E090E0DFDCFF91EF91BF91AF9106
:100D70009F918F917F916F915F914F913F912F91B3
:100D80000F900BBE0F900FBE0F901F9018951F92E3
:100D90000F920FB60F9211240BB60F922F933F9321
:100DA0004F935F936F937F938F939F93AF93BF9373
:100DB000EF93FF9348E850E064E870E081E090E052
:100DC000B2DCFF91EF91BF91AF919F918F917F9195
:100DD0006F915F914F913F912F910F900BBE0F90AC
:100DE0000FBE0F901F9018951F920F920FB60F9283
:100DF00011240BB60F922F933F934F935F936F93F2
:100E00007F938F939F93AF93BF93EF93FF938091C3
:100E1000B900887F803609F49CC068F5883209F4EF
:100E20005BC090F4803109F454C038F4882309F48D
:100E3000F6C0883009F44DC0F5C0883109F44CC0C3
:100E4000803209F45DC0EEC0803409F468C048F413
:100E5000803309F455C0883309F0E4C080936403FB
:100E6000D8C0803509F44FC0883509F45DC0883496
:100E700009F0D8C0D6C0883909F4C7C0A8F48837AB
:100E800009F467C038F4883609F463C0803709F480
:100E900060C0C8C0883809F4B8C0803909F45FC0A0
:100EA000803809F0BFC05BC0803B09F486C038F4CD
:100EB000803A09F466C0883A09F47FC0B3C0803C28
:100EC00009F4A7C0883C09F4A4C0883B09F48AC08F
:100ED000A9C08091410310C0909163038091620387
:100EE000981770F5E091630381E08E0F80936303A0
:100EF000F0E0EE5BFC4F80818093BB0085EC86C008
:100F0000809364038EC0E091630381E08E0F809331
:100F100063038091BB00F0E0EE5BFC4F8083909117
:100F20006303809162036EC0E091630381E08E0FE2
:100F3000809363038091BB00F0E0EE5BFC4F808305
:100F40008091650381116DC081E08093400384EA44
:100F500061C083E08093660310927A02CFCF8091C4
:100F60007A02803208F051C0E0917A0281E08E0F5F
:100F700080937A028091BB00F0E0E65AFD4F8083B7
:100F8000BDCF85EC8093BC001092660380917A02FD
:100F9000803230F4E0917A02F0E0E65AFD4F1082A0
:100FA00060917A0270E0E0915802F09159028AE56E
:100FB00092E0199510927A0235C084E0809366031E
:100FC0001092570210925602E0915402F09155028D
:100FD000199580915602811105C081E080935602D7
:100FE00010923402E091570281E08E0F80935702F5
:100FF000F0E0EC5CFD4F80818093BB009091570244
:1010000080915602981708F479CF85E88093BC0048
:1010100009C085EC8093BC001092660303C0109257
:1010200064030BDCFF91EF91BF91AF919F918F9182
:101030007F916F915F914F913F912F910F900BBED8
:101040000F900FBE0F901F901895EBE8F3E01382FE
:10105000128288EE93E0A0E0B0E084839583A683BB
:10106000B7832AE032E03183208325EC30E03587F6
:10107000248724EC30E03787268720EC30E0318B62
:10108000208B21EC30E0338B228B22EC30E0358B4F
:10109000248B26EC30E0378B268B118E128E138E2C
:1010A000148EE8E2F4E01382128284839583A6838F
:1010B000B7838AE192E091838083E4E3F4E08AE2FB
:1010C00092E09183808388E690E093838283089501
:1010D000789484B5826084BD84B5816084BD85B513
:1010E000826085BD85B5816085BD80916E0081601F
:1010F00080936E00109281008091810082608093C5
:1011000081008091810081608093810080918000C6
:101110008160809380008091B10084608093B100F1
:101120008091B00081608093B000809191008260D6
:1011300080939100809191008160809391008091D3
:1011400090008160809390008091A10082608093E4
:10115000A1008091A10081608093A1008091A000F6
:1011600081608093A00080912101826080932101A1
:101170008091210181608093210180912001816013
:101180008093200180917A00846080937A0080911E
:101190007A00826080937A0080917A0081608093E7
:1011A0007A0080917A00806880937A001092C10062
:1011B000E0919B03F0919C0382E08083E091970390
:1011C000F09198031082E0919903F0919A038FECCB
:1011D00080831092A303E0919F03F091A00386E027
:1011E0008083E0919D03F0919E03808180618083E4
:1011F000E0919D03F0919E03808188608083E0915F
:101200009D03F0919E03808180688083E0919D031F
:10121000F0919E0380818F7D808310921F03109236
:101220001E031092680310928A031092660381E0F5
:10123000809365031092400361E084E1AFD861E0E0
:1012400085E1ACD88091B9008E7F8093B900809100
:10125000B9008D7F8093B90088E48093B80085E45D
:101260008093BC0060E070E08BE690E079DB8CE07E
:1012700090E0909337048093360460E070E08AE059
:1012800090E06EDB6FE070E08AE090E069DB60E0A8
:1012900070E08AE090E064DB88E690E090933704A9
:1012A0008093360460E470E084E290E059DB6CE8FF
:1012B00070E085E290E054DB62E070E086E290E06E
:1012C0004FDB68E870E087E290E04ADB6CE070E0BA
:1012D00088E290E045DB6AE070E089E290E040DB84
:1012E00061E870E08AE290E03BDB61E070E084E678
:1012F00090E036DB63E070E087E690E031DB60E8A9
:1013000070E081E090E02CDB64E070E084E390E04A
:1013100027DB60E070E084E690E022DB60E070E0D4
:101320008AE690E01DDB61E070E084E690E018DB87
:1013300060E270E08AE690E013DB63E170E084E352
:1013400090E00EDB63E470E084E490E021DB9093B6
:10135000100380930F0365E470E086E490E018DBEF
:10136000909312038093110367E470E088E490E0A7
:101370000FDB909314038093130380910F039091DC
:1013800010035CDB8EE292E048DB809111039091C8
:10139000120354DB8EE292E040DB809113039091C4
:1013A00014034CDB8EE292E038DB81E392E035DB24
:1013B00072D84B015C0184E6C82ED12CE12CF12CB3
:1013C0006AD8DC01CB0188199909AA09BB09883EB2
:1013D0009340A105B10558F021E0C21AD108E108F7
:1013E000F10888EE880E83E0981EA11CB11CC11480
:1013F000D104E104F10421F75DD9A4CF0895A1E25D
:101400001A2EAA1BBB1BFD010DC0AA1FBB1FEE1F7E
:10141000FF1FA217B307E407F50720F0A21BB30BC9
:10142000E40BF50B661F771F881F991F1A9469F745
:1014300060957095809590959B01AC01BD01CF01A1
:101440000895EE0FFF1F881F8BBF0790F691E02DC8
:101450001994CF93DF938230910510F482E090E0ED
:10146000E0913A04F0913B0420E030E0C0E0D0E0AD
:10147000309711F14081518148175907C0F0481742
:10148000590761F482819381209719F09B838A83A5
:101490002BC090933B0480933A0426C0211531055C
:1014A00019F04217530718F49A01BE01DF01EF014A
:1014B0000280F381E02DDCCF2115310509F1281BD5
:1014C000390B2430310590F412968D919C9113972D
:1014D0006115710521F0FB019383828304C0909311
:1014E0003B0480933A04FD01329644C0FD01E20FB3
:1014F000F31F81939193225031092D933C933AC06D
:101500002091380430913904232B41F420910202B8
:101510003091030230933904209338042091000263
:10152000309101022115310541F42DB73EB74091AC
:10153000040250910502241B350BE0913804F09110
:101540003904E217F307A0F42E1B3F0B28173907C5
:1015500078F0AC014E5F5F4F2417350748F04E0F0F
:101560005F1F50933904409338048193919302C0D4
:10157000E0E0F0E0CF01DF91CF9108950F931F934A
:10158000CF93DF93009709F48CC0FC01329713824C
:10159000128200913A0410913B040115110581F467
:1015A00020813181820F931F2091380430913904BA
:1015B0002817390779F5F0933904E093380471C09E
:1015C000D80140E050E0AE17BF0750F412962D91BD
:1015D0003C911397AD012115310509F1D901F3CFE4
:1015E0009D01DA013383228360817181860F971F09
:1015F0008217930769F4EC0128813981260F371F80
:101600002E5F3F4F318320838A819B819383828326
:10161000452B29F4F0933B04E0933A0442C013961F
:10162000FC93EE931297ED01499159919E01240F7D
:10163000351FE217F30771F480819181840F951FA4
:10164000029611969C938E938281938113969C931C
:101650008E931297E0E0F0E0D80112968D919C9164
:101660001397009719F0F8018C01F6CF8D919C919A
:1016700098012E5F3F4F820F931F209138043091C5
:1016800039042817390769F4309729F410923B047C
:1016900010923A0402C0138212821093390400930C
:1016A0003804DF91CF911F910F91089581E090E070
:1016B000F89400C010E0CBEFD0E000E005C0802F30
:1016C000FE01BFDE2196011DCC3FD10780E0080757
:0616D000B1F7F894FFCF12
:1016D60000003C04800000000000F3027002BD021E
:1016E6009B02AF023903000000007E044F0415047C
:1016F6000104F203F1030000000092039605202086
:04170600000D0A00C8
:00000001FF
