:10000000FBC000002AC1000028C1000026C100007A
:1000100024C1000022C1000020C100001EC1000058
:100020001CC100001AC1000018C1000016C1000068
:1000300014C1000012C1000010C100000EC1000078
:100040000CC100007CC5000008C1000006C1000012
:1000500004C1000002C1000000C100003EC4000055
:10006000FCC00000ADC4000082C40000F6C0000067
:10007000F4C00000F2C00000F0C00000EEC00000BC
:1000800031C50000EAC00000E8C00000E6C0000082
:10009000E4C00000E2C00000E0C000007DC5000038
:1000A000DCC00000DAC00000F0C40000D6C00000D0
:1000B000D4C00000D2C00000D0C00000B9C400000D
:1000C000CCC00000CAC00000C8C00000C6C000000C
:1000D000C4C00000C2C00000C0C00000BEC000001C
:1000E000BCC00000B508B808A708AB08AF08EF0807
:1000F000BC08C008C608CA08CE08D408D808DC085E
:10010000EF08E208E608EA080000220025002800BF
:100110002B002E003100340002010000050108010F
:100120000B0105050505070508080808020202027B
:100130000A0A080804040404010101010101010183
:100140000303030303030303040707070C0C0C0C4E
:100150000C0C0C0C02020202060606060606060637
:100160000B0B0B0B0B0B0B0B0102102020080810C4
:100170002040102040800201020108040201010217
:1001800004081020408080402010080402018004F0
:10019000020180402010080402010804020101024B
:1001A0000408102040800102040810204080000054
:1001B0000A0B02090C0D0E080703040100000000E1
:1001C000000000000000000000000000000000002F
:1001D00000000000000000000000121110000000EC
:1001E000000000000000000000000000000000000F
:1001F00000000000E30AE20A11241FBECFEFD1E2A3
:10020000DEBFCDBF00E00CBF12E0A0E0B2E0ECEE3C
:10021000FCE100E00BBF02C007900D92A036B107D1
:10022000D9F724E0A0E6B2E001C01D92A038B207E1
:10023000E1F710E0CBEFD0E000E006C02197010924
:10024000802FFE010E942C0DCA3FD10780E00807D5
:10025000A9F70E9447090C94650ED2CECF92DF9287
:10026000EF92FF920F931F93CF93DF936C017A016C
:100270008B01C0E0D0E0CE15DF0589F0D8016D918B
:100280008D01D601ED91FC910190F081E02DC60128
:100290001995892B11F47E0102C02196ECCFC7017C
:1002A000DF91CF911F910F91FF90EF90DF90CF9052
:1002B0000895FC01918D828D981761F0828DDF0188
:1002C000A80FB11D5D968C91928D9F5F9F73928F49
:1002D00090E008958FEF9FEF0895FC01918D828D3E
:1002E000981731F0828DE80FF11D858D90E008950B
:1002F0008FEF9FEF0895FC01918D228D892F90E063
:10030000805C9F4F821B91098F739927089586EB1C
:1003100093E0F1DF21E0892B09F420E0822F08959A
:10032000FC01848DDF01A80FB11DA35ABF4F2C9192
:10033000848D90E001968F739927848FA689B78961
:100340002C93A089B1898C9180648C93938D848D3A
:10035000981306C00288F389E02D80818F7D808309
:100360000895EF92FF920F931F93CF93DF93EC01C9
:1003700081E0888F9B8D8C8D981305C0E889F98961
:10038000808185FD23C0F62E0B8D10E00F5F1F4F7F
:100390000F731127E02E8C8DE8120BC00FB607FCEF
:1003A000FACFE889F989808185FFF5CFCE01B8DFE2
:1003B000F2CF8B8DFE01E80FF11DE35AFF4FF08263
:1003C0000B8FEA89FB898081806207C0EE89FF89F3
:1003D0006083E889F98980818064808381E090E08E
:1003E000DF91CF911F910F91FF90EF900895CF93E0
:1003F000DF93EC01888D8823C1F0EA89FB89808135
:1004000085FD05C0A889B9898C9186FD0EC00FB6FF
:1004100007FCF5CF808185FFF2CFA889B9898C913F
:1004200085FFEDCFCE017CDFE8CFDF91CF9108953E
:1004300080E090E0892B19F06ADF811125C080E00F
:1004400090E0892B41F080E090E0892B21F00E9420
:10045000000081111CC080E090E0892B41F080E019
:1004600090E0892B21F00E940000811113C080E0F0
:1004700090E0892BA1F080E090E0892B81F00E9430
:10048000000081110AC008950E940000D8CF0E9488
:100490000000E1CF0E940000EACF0C940000089514
:1004A0000895E0914B0380914A03E81730F4F0E09F
:1004B000E45BFC4F808190E008958FEF9FEF0895FB
:1004C00090914B0380914A03981750F4E92FF0E084
:1004D000E45BFC4F208130E09F5F90934B0302C0B0
:1004E0002FEF3FEFC901089580914A0390E02091DA
:1004F0004B03821B9109089585ED8093BC00809188
:10050000BC0084FDFCCF10929203089540918202BA
:10051000262F30E0240F311D21323105DCF42091EB
:1005200092032430C9F4FC0180E090E0861758F46F
:10053000309182022191DC01A05ABD4FA30FB11D61
:100540002C930196F3CF80918202680F6093820210
:1005500080E0089581E0089582E00895CF92DF92CF
:10056000EF92FF920F931F93CF93DF937C01262F7F
:10057000972F8A0180919303882391F0C62FD72F5C
:100580006E01C40ED51ECC15DD0569F06991D70149
:10059000ED91FC910190F081E02DC7011995F3CF09
:1005A000642F822FB3DFC801DF91CF911F910F918C
:1005B000FF90EF90DF90CF900895CF93DF931F923D
:1005C000CDB7DEB76983209193032223D1F0209128
:1005D000B503203240F021E030E0FC013383228378
:1005E00080E090E014C080919403E82FF0E0EB5697
:1005F000FC4F998190838F5F809394038093B50320
:1006000004C061E0CE01019681DF81E090E00F90AF
:10061000DF91CF910895CF93DF93DB01EA01FC01D5
:10062000E95CFC4F208127FF04C011961C921E92AA
:100630000DC040815CE0589F9001599F300D1124FE
:10064000240F311D47FD3A9537FD208120812F5F12
:1006500020834CE0489F9001499F300D11248081F8
:10066000A901480F511D87FD5A9557FF1EC0808173
:100670008C30DCF44D915C918081B901680F711D63
:1006800087FD7A95CB01DB01AA0FBB1F8A0F9B1F49
:10069000DC01A955BD4F11968D919C911297840F45
:1006A000951F99838883808111C08D919C911197AA
:1006B000049680349C4918F480E49CE903C08D9131
:1006C0009C910496998388838FEF8083DF91CF91EB
:1006D00008950E94610E8F929F92AF92BF92CF9227
:1006E000DF92EF92FF92FC018481228133812130DD
:1006F000310509F44FC02230310509F48CC0232B99
:1007000009F0DDC080D50B97BC01990F880B990BC0
:100710000E94780C9B01AC0160E070EC81E095E4F4
:100720000E94DD0B20E030E040E050E4DED70E9484
:10073000450C6B017C01072E000C880B990B0E9465
:10074000780C4B015C0120E030E0A9010E94D90B3C
:1007500087FDA7C020E030E0A901C501B4010E94D7
:10076000280D87FD0BC020E030E040E850E4C501D3
:10077000B4010E94D90B18160CF090C020E030E0B4
:1007800040EF51E4C501B4010E94280D18160CF485
:1007900088C082C038D54497BC01990F880B990B4B
:1007A0000E94780C9B01AC0160E070E086E995E462
:1007B0000E94DD0B0E94450C6B017C01072E000C92
:1007C000880B990B0E94780C4B015C0120E030E013
:1007D000A901EFD787FD6BC020E030E0A901C5017A
:1007E000B4010E94280D87FD0AC020E030E040E2FD
:1007F00051E4C501B401DDD718160CF055C020E056
:1008000030E040EA52E4C501B4010E94280D1816F8
:100810000CF44DC041C0F7D4BC01990F880B990B63
:100820000E94780C29E23CE547E851E45DD79B0142
:10083000AC0160E078ED83E196E4BFD70E94450CFF
:100840006B017C01072E000C880B990B0E94780C21
:100850004B015C0120E030E0A901ABD787FD2DC042
:1008600020E030E0A901C501B4010E94280D87FDF8
:1008700009C020E030E040EA51E4C501B40199D755
:100880001816C4F420E030E046E153E4C501B40199
:100890000E94280D18168CF0A60111C043E050E00C
:1008A0000EC04EE150E00BC049E050E008C040E50A
:1008B00050E005C043E150E002C046E950E0CA0103
:1008C000FF90EF90DF90CF90BF90AF909F908F9070
:1008D00008950C94C90D0C94C90D1F920F920FB678
:1008E0000F9211242F933F938F939F93AF93BF93B6
:1008F0008091420390914303A0914403B09145033A
:100900003091410323E0230F2D3720F40196A11DE0
:10091000B11D05C026E8230F0296A11DB11D20932D
:1009200041038093420390934303A0934403B09305
:1009300045038091460390914703A0914803B091ED
:1009400049030196A11DB11D80934603909347036F
:10095000A0934803B0934903BF91AF919F918F91AA
:100960003F912F910F900FBE0F901F9018951F92DF
:100970000F920FB60F9211240BB60F922F933F9345
:100980004F935F936F937F938F939F93AF93BF9397
:10099000EF93FF9386EB93E0C3DCFF91EF91BF9160
:1009A000AF919F918F917F916F915F914F913F9107
:1009B0002F910F900BBE0F900FBE0F901F901895A8
:1009C0001F920F920FB60F9211240BB60F922F9316
:1009D0008F939F93EF93FF93E091C603F091C7032A
:1009E0008081E091CC03F091CD0382FD12C0908113
:1009F0008091CF038F5F8F732091D003821751F0C6
:100A0000E091CF03F0E0EA54FC4F958F8093CF0341
:100A100001C08081FF91EF919F918F912F910F9055
:100A20000BBE0F900FBE0F901F901895089508955C
:100A30001F920F920FB60F9211240BB60F922F93A5
:100A40003F934F935F936F937F938F939F93AF9356
:100A5000BF93EF93FF9348E251E064E271E080E0DE
:100A600090E0D9DDFF91EF91BF91AF919F918F9170
:100A70007F916F915F914F913F912F910F900BBE9E
:100A80000F900FBE0F901F9018951F920F920FB6E8
:100A90000F9211240BB60F922F933F934F935F93B6
:100AA0006F937F938F939F93AF93BF93EF93FF9336
:100AB00048EA50E064EA70E083E090E0ACDDFF914A
:100AC000EF91BF91AF919F918F917F916F915F91C6
:100AD0004F913F912F910F900BBE0F900FBE0F9033
:100AE0001F9018951F920F920FB60F9211240BB6FC
:100AF0000F922F933F934F935F936F937F938F93B7
:100B00009F93AF93BF93EF93FF9348E950E064E95D
:100B100070E082E090E07FDDFF91EF91BF91AF91B7
:100B20009F918F917F916F915F914F913F912F9105
:100B30000F900BBE0F900FBE0F901F9018951F9235
:100B40000F920FB60F9211240BB60F922F933F9373
:100B50004F935F936F937F938F939F93AF93BF93C5
:100B6000EF93FF9348E850E064E870E081E090E0A4
:100B700052DDFF91EF91BF91AF919F918F917F9146
:100B80006F915F914F913F912F910F900BBE0F90FE
:100B90000FBE0F901F9018951F920F920FB60F92D5
:100BA00011240BB60F922F933F934F935F936F9344
:100BB0007F938F939F93AF93BF93EF93FF93809116
:100BC000B900887F803609F49CC068F5883209F442
:100BD0005BC090F4803109F454C038F4882309F4E0
:100BE000F6C0883009F44DC0F5C0883109F44CC016
:100BF000803209F45DC0EEC0803409F468C048F466
:100C0000803309F455C0883309F0E4C08093900321
:100C1000D8C0803509F44FC0883509F45DC08834E8
:100C200009F0D8C0D6C0883909F4C7C0A8F48837FD
:100C300009F467C038F4883609F463C0803709F4D2
:100C400060C0C8C0883809F4B8C0803909F45FC0F2
:100C5000803809F0BFC05BC0803B09F486C038F41F
:100C6000803A09F466C0883A09F47FC0B3C0803C7A
:100C700009F4A7C0883C09F4A4C0883B09F48AC0E1
:100C8000A9C080916D0310C090918F0380918E0355
:100C9000981770F5E0918F0381E08E0F80938F039A
:100CA000F0E0E259FC4F80818093BB0085EC86C068
:100CB000809390038EC0E0918F0381E08E0F80932C
:100CC0008F038091BB00F0E0E259FC4F808390914C
:100CD0008F0380918E036EC0E0918F0381E08E0FB1
:100CE00080938F038091BB00F0E0E259FC4F80833A
:100CF0008091910381116DC081E080936C0384EA3F
:100D000061C083E0809392031092A602CFCF8091BE
:100D1000A602803208F051C0E091A60281E08E0F59
:100D20008093A6028091BB00F0E0EA57FD4F8083DC
:100D3000BDCF85EC8093BC00109292038091A602F7
:100D4000803230F4E091A602F0E0EA57FD4F1082C5
:100D50006091A60270E0E0918402F091850286E83D
:100D600092E019951092A60235C084E08093920318
:100D70001092830210928202E0918002F09181022F
:100D8000199580918202811105C081E080938202D1
:100D900010926002E091830281E08E0F80938302C3
:100DA000F0E0E05AFD4F80818093BB009091830278
:100DB00080918202981708F479CF85E88093BC006F
:100DC00009C085EC8093BC001092920303C010927E
:100DD000900392DBFF91EF91BF91AF919F918F9123
:100DE0007F916F915F914F913F912F910F900BBE2B
:100DF0000F900FBE0F901F901895382F2091B503BC
:100E000090917B04213208F049C0809192038111B6
:100E1000FCCF42E040939203309391033FEF309335
:100E2000900310928F0320938E03A5E9B3E04EE662
:100E300053E0FA013E2F341B321718F43D913193E1
:100E4000F9CF10926D0320916D03990F922B90931F
:100E50006D0390916C03913061F410926C0390914A
:100E60006D039093BB009091BC0093FDF8CF95EC7F
:100E700001C095EE9093BC00909192039230E1F303
:100E8000909190039F3F79F080919003803241F0E0
:100E900080919003803331F084E005C081E003C08D
:100EA00082E001C083E0109294031092B503109287
:100EB00093030895909192039111FCCF91E0909348
:100EC0009203409391032FEF2093900310928F038E
:100ED000260F20938E0390936D0390916D03880FDE
:100EE000892B80936D0380916C03813061F41092A3
:100EF0006C0380916D038093BB008091BC0083FDE7
:100F0000F8CF85EC01C085EE8093BC008091920300
:100F10008130E1F380918F03861710F460918F0385
:100F2000AEE6B3E02CE433E0F9018E2F821B861786
:100F300018F48D918193F9CF862F0895682F83E55A
:100F400094E03BCBCF93DF93EB012091790431E028
:100F50003093930320937B04109294031092B50373
:100F6000EDDFCE01EBDF81E048DF81E090E0DF9153
:100F7000CF910895009761F0FC0101900020E9F7FE
:100F80003197AF01481B590BBC0186EB93E066C952
:100F900080E090E008958F929F92AF92BF92CF929F
:100FA000DF92EF92FF920F931F93CF93DF93CDB712
:100FB000DEB7A1970FB6F894DEBF0FBECDBF6C01B0
:100FC000990FEE08FF08F7FE2FC0E091B603F091ED
:100FD000B7030190F081E02D6DE286EB93E0199567
:100FE0008C0122273327A9012C193D094E095F09DD
:100FF00019A2CE0181967C019AE0892E912CA12C18
:10100000B12CCA01B901A50194014CD3605DF7016F
:1010100062937F01211531054105510591F7CF01FB
:10102000A9DF800F911F1BC0A701960119A28E0195
:101030000F5D1F4F8AE0C82ED12CE12CF12CCA0184
:10104000B901A70196012ED3605DF80162938F016B
:10105000211531054105510591F7CF018BDFA1968F
:101060000FB6F894DEBF0FBECDBFDF91CF911F91B9
:101070000F91FF90EF90DF90CF90BF90AF909F9037
:101080008F900895EF92FF920F931F93CF93DF936A
:101090007B01C7E7D4E02A8111E0109393032093EA
:1010A0007B04109294031092B50348DF80E0A5DE24
:1010B00041E061E08A81FEDE10924B0380934A0397
:1010C00083E594E0FDD9082F8A81109393038093E0
:1010D0007B04109294031092B503C7012FDF80E0C8
:1010E0008CDE41E061E08A81E5DE10924B03809363
:1010F0004A0383E594E0E4D9982F8827800F911D57
:10110000DF91CF911F910F91FF90EF900895362FAF
:1011100090E0FC01E255FE4F4491FC01E859FE4F7E
:101120002491FC01EE5DFE4F9491992309F46AC06D
:10113000442309F454C050E0FA013197E231F1053B
:1011400008F04DC08827EE58FF4F8F4F85C480911F
:1011500080008F7707C0809180008F7D03C08091D1
:101160008000877F809380003AC084B58F7702C06B
:1011700084B58F7D84BD33C08091B0008F7703C06C
:101180008091B0008F7D8093B00029C08091900045
:101190008F7707C0809190008F7D03C08091900071
:1011A000877F809390001BC08091A0008F7707C03D
:1011B0008091A0008F7D03C08091A000877F8093E5
:1011C000A0000DC0809120018F7707C08091200181
:1011D0008F7D03C080912001877F80932001E92FBC
:1011E000F0E0EE0FFF1FE85FFE4FA591B4918FB7BF
:1011F000F894EC91311103C020952E2301C02E2BC1
:101200002C938FBF0895863308F0865390917B000E
:10121000282F2870977F922B90937B008770806493
:1012200080937C0080917A00806480937A00809122
:101230007A0086FDFCCF809178002091790090E0C3
:10124000922B08953FB7F8948091460390914703FD
:10125000A0914803B091490326B5A89B05C02F3F34
:1012600019F00196A11DB11D3FBFBA2FA92F982FCC
:101270008827820F911DA11DB11DBC01CD0142E047
:10128000660F771F881F991F4A95D1F708957894A4
:1012900084B5826084BD84B5816084BD85B582607B
:1012A00085BD85B5816085BD80916E00816080932C
:1012B0006E00109281008091810082608093810095
:1012C00080918100816080938100809180008160A5
:1012D000809380008091B10084608093B100809100
:1012E000B00081608093B000809191008260809313
:1012F0009100809191008160809391008091900095
:101300008160809390008091A10082608093A10011
:101310008091A10081608093A1008091A0008160F4
:101320008093A000809121018260809321018091AF
:10133000210181608093210180912001816080934F
:10134000200180917A00846080937A0080917A00F5
:10135000826080937A0080917A00816080937A0025
:1013600080917A00806880937A001092C100E091A9
:10137000C603F091C70382E08083E091C203F0913D
:10138000C3031082E091C403F091C50380E1808320
:101390001092CE03E091CA03F091CB0386E08083E4
:1013A000E091C803F091C903808180618083E0915E
:1013B000C803F091C903808188608083E091C803ED
:1013C000F091C903808180688083E091C803F09127
:1013D000C90380818F7D808310924B0310924A0352
:1013E000109294031092B5031092920381E08093BF
:1013F000910310926C0361E084E189DE61E085E194
:1014000086DE8091B9008E7F8093B9008091B9000B
:101410008D7F8093B90088E48093B80085E4809341
:10142000BC0060E070E08BE690E08CDD8CE090E04A
:1014300090937A048093790460E070E08AE090E011
:1014400081DD6FE070E08AE090E07CDD60E070E0DC
:101450008AE090E077DD88E690E090937A048093CC
:10146000790460E470E084E290E06CDD6CE870E0A8
:1014700085E290E067DD62E070E086E290E062DDA8
:1014800068E870E087E290E05DDD6CE070E088E2A3
:1014900090E058DD6AE070E089E290E053DD61E8B9
:1014A00070E08AE290E04EDD61E070E084E690E07A
:1014B00049DD63E070E087E690E044DD60E870E0DD
:1014C00081E090E03FDD64E070E084E390E03ADDAD
:1014D00060E070E084E690E035DD60E070E08AE690
:1014E00090E030DD61E070E084E690E02BDD60E2CA
:1014F00070E08AE690E026DD63E170E084E390E04E
:1015000021DD63E470E084E490E0BCDD90933C0373
:1015100080933B0365E470E086E490E0B3DD909354
:101520003E0380933D0367E470E088E490E0AADD29
:101530009093400380933F0386E392E01BDD81E7B5
:1015400094E0C9D828DD8EE392E014DD8BE694E0C8
:10155000C2D821DD88E492E00DDD85E694E0BBD8B9
:101560001ADD82E592E006DD8FE594E0B4D813DD64
:101570008CE592E0FFDC66DE4B015C0184E6C82E60
:10158000D12CE12CF12C5EDEDC01CB01881999090C
:10159000AA09BB09883E9340A105B10558F021E096
:1015A000C21AD108E108F10888EE880E83E0981E7F
:1015B000A11CB11CC114D104E104F10421F70E9463
:1015C00018029FCF0895E6EBF3E01382128288EEB3
:1015D00093E0A0E0B0E084839583A683B7832AE0FC
:1015E00032E03183208325EC30E03587248724ECFA
:1015F00030E03787268720EC30E0318B208B21ECE0
:1016000030E0338B228B22EC30E0358B248B26ECC0
:1016100030E0378B268B118E128E138E148EE3E5FD
:10162000F4E01382128284839583A683B7838AE1D0
:1016300092E091838083E7E7F4E082E392E0918394
:10164000808388E690E093838283E1E7F4E08AE296
:1016500092E0918380831382128227E330E0358306
:101660002483EBE6F4E0918380831382128228E3E3
:1016700030E035832483E5E6F4E09183808321E044
:1016800030E03383228349E350E055834483EFE520
:10169000F4E091838083338322838AE390E095830F
:1016A00084830895A1E21A2EAA1BBB1BFD010DC065
:1016B000AA1FBB1FEE1FFF1FA217B307E407F50702
:1016C00020F0A21BB30BE40BF50B661F771F881FDE
:1016D000991F1A9469F760957095809590959B0174
:1016E000AC01BD01CF0108955058BB27AA270ED0E9
:1016F00075C166D130F06BD120F031F49F3F11F409
:101700001EF45BC10EF4E095E7FB51C1E92F77D1E0
:1017100080F3BA17620773078407950718F071F40E
:101720009EF58FC10EF4E0950B2EBA2FA02D0B0164
:10173000B90190010C01CA01A0011124FF27591B16
:1017400099F0593F50F4503E68F11A16F040A22F1C
:10175000232F342F4427585FF3CF4695379527958D
:10176000A795F0405395C9F77EF41F16BA0B620B8C
:10177000730B840BBAF09150A1F0FF0FBB1F661FD3
:10178000771F881FC2F70EC0BA0F621F731F841F16
:1017900048F4879577956795B795F7959E3F08F03C
:1017A000B3CF9395880F08F09927EE0F97958795FB
:1017B0000895D9D008F481E008950CD00FC107D165
:1017C00040F0FED030F021F45F3F19F0F0C051112D
:1017D00039C1F3C014D198F39923C9F35523B1F358
:1017E000951B550BBB27AA2762177307840738F090
:1017F0009F5F5F4F220F331F441FAA1FA9F333D0EF
:101800000E2E3AF0E0E830D091505040E695001CA2
:10181000CAF729D0FE2F27D0660F771F881FBB1F5E
:10182000261737074807AB07B0E809F0BB0B802D38
:10183000BF01FF2793585F4F2AF09E3F510568F084
:10184000B6C000C15F3FECF3983EDCF38695779518
:101850006795B795F7959F5FC9F7880F911D969586
:10186000879597F90895E1E0660F771F881FBB1FE2
:10187000621773078407BA0720F0621B730B840B8F
:10188000BA0BEE1F88F7E095089504D06894B11163
:10189000D9C00895BCD088F09F5790F0B92F9927F0
:1018A000B751A0F0D1F0660F771F881F991F1AF06B
:1018B000BA95C9F712C0B13081F0C3D0B1E0089534
:1018C000C0C0672F782F8827B85F39F0B93FCCF3B5
:1018D000869577956795B395D9F73EF49095809561
:1018E000709561957F4F8F4F9F4F0895E89409C081
:1018F00097FB3EF490958095709561957F4F8F4F43
:101900009F4F9923A9F0F92F96E9BB279395F69558
:10191000879577956795B795F111F8CFFAF4BB0FD6
:1019200011F460FF1BC06F5F7F4F8F4F9F4F16C03A
:10193000882311F096E911C0772321F09EE8872FC4
:10194000762F05C0662371F096E8862F70E060E080
:101950002AF09A95660F771F881FDAF7880F9695F9
:10196000879597F90895990F0008550FAA0BE0E89D
:10197000FEEF16161706E807F907C0F01216130651
:10198000E407F50798F0621B730B840B950B39F491
:101990000A2661F0232B242B252B21F408950A26F7
:1019A00009F4A140A6958FEF811D811D089597F937
:1019B0009F6780E870E060E008959FEF80EC0895F5
:1019C00000240A941616170618060906089500241E
:1019D0000A9412161306140605060895092E039498
:1019E000000C11F4882352F0BB0F40F4BF2B11F40C
:1019F00060FF04C06F5F7F4F8F4F9F4F089557FD6B
:101A00009058440F551F59F05F3F71F04795880F6C
:101A100097FB991F61F09F3F79F087950895121603
:101A200013061406551FF2CF4695F1DF08C01616AF
:101A300017061806991FF1CF869571056105089460
:101A40000895E894BB2766277727CB0197F9089577
:101A50008ADF08F48FEF0895EE0FFF1F881F8BBFFA
:101A60000790F691E02D1994CF93DF938230910582
:101A700010F482E090E0E0917E04F0917F0420E099
:101A800030E0C0E0D0E0309711F14081518148173B
:101A90005907C0F04817590761F482819381209754
:101AA00019F09B838A832BC090937F0480937E04DC
:101AB00026C02115310519F04217530718F49A0171
:101AC000BE01DF01EF010280F381E02DDCCF2115A3
:101AD000310509F1281B390B2430310590F4129699
:101AE0008D919C9113976115710521F0FB019383F2
:101AF000828304C090937F0480937E04FD0132961C
:101B000044C0FD01E20FF31F8193919322503109EC
:101B10002D933C933AC020917C0430917D04232B7B
:101B200041F4209102023091030230937D0420930E
:101B30007C0420910002309101022115310541F40D
:101B40002DB73EB74091040250910502241B350B7E
:101B5000E0917C04F0917D04E217F307A0F42E1BC2
:101B60003F0B2817390778F0AC014E5F5F4F241701
:101B7000350748F04E0F5F1F50937D0440937C045F
:101B80008193919302C0E0E0F0E0CF01DF91CF912B
:101B900008950F931F93CF93DF93009709F48CC0A0
:101BA000FC0132971382128200917E0410917F040F
:101BB0000115110581F420813181820F931F20913D
:101BC0007C0430917D042817390779F5F0937D0462
:101BD000E0937C0471C0D80140E050E0AE17BF072D
:101BE00050F412962D913C911397AD0121153105BA
:101BF00009F1D901F3CF9D01DA013383228360819A
:101C00007181860F971F8217930769F4EC01288171
:101C10003981260F371F2E5F3F4F318320838A8102
:101C20009B8193838283452B29F4F0937F04E09377
:101C30007E0442C01396FC93EE931297ED014991F6
:101C400059919E01240F351FE217F30771F480812B
:101C50009181840F951F029611969C938E93828199
:101C6000938113969C938E931297E0E0F0E0D80155
:101C700012968D919C911397009719F0F8018C01A1
:101C8000F6CF8D919C9198012E5F3F4F820F931F4D
:101C900020917C0430917D042817390769F430972E
:101CA00029F410927F0410927E0402C013821282E3
:101CB00010937D0400937C04DF91CF911F910F91CD
:101CC000089581E090E0F89400C010E0CBEFD0E000
:101CD00000E005C0802FFE01BFDE2196011DCC3F34
:0C1CE000D10780E00807B1F7F894FFCFAF
:101CEC0000008004800000000000B1012E017B0187
:101CFC0059016D01F70100000000DD02AE02740213
:101D0C006002510250020000000016056904000038
:101D1C00000017056B0449525F666C3A20002C20BA
:101D2C0049525F66723A20002C2049525F73663A22
:101D3C0020002C2049525F73623A20000D0A0000EB
:00000001FF
